:100000000C945D000C947C000C947C000C947C009F
:100010000C947C000C947C000C947C000C947C0070
:100020000C947C000C947C000C947C000C947C0060
:100030000C947C000C947C000C947C000C947C0050
:100040000C947E000C947C000C947C000C947C003E
:100050000C947C000C947C000C947C000C947C0030
:100060000C947C000C947C000C947C000C947C0020
:100070000C947C000C947C000C947C000C947C0010
:100080000C947C000C947C000C947C00084AD73BB8
:100090003BCE016E84BCBFFDC12F3D6C74319ABD57
:1000A00056833DDA3D00C77F11BED9E4BB4C3E917B
:1000B0006BAAAABE000000803F0011241FBECFEF34
:1000C000D0E1DEBFCDBF12E0A0E0B1E0EEE1F8E2AA
:1000D00000E00BBF02C007900D92A830B107D9F71E
:1000E00012E0A8E0B2E001C01D92AC3BB107E1F71D
:1000F0000E94E1040C940D140C9400001F920F92C6
:100100000FB60F920BB60F9211242F933F934F937C
:100110005F936F937F938F939F93AF93BF93EF936F
:10012000FF93609108027091090280910A029091F8
:100130000B022FE632E143E05BE30E94FC0B60938D
:1001400008027093090280930A0290930B0283E8DD
:1001500082BFFF91EF91BF91AF919F918F917F915E
:100160006F915F914F913F912F910F900BBE0F9028
:100170000FBE0F901F901895982F84EA80937400FB
:100180008091740087FFFCCF80917100887F883058
:10019000D9F780ED8093730084E880937400809198
:1001A000740087FFFCCF80917100887F8831D9F778
:1001B0009093730084E8809374008091740087FFAB
:1001C000FCCF80917100887F8832D9F760937300EB
:1001D00084E8809374008091740087FFFCCF809145
:1001E0007100887F8832D9F784E98093740008957C
:1001F000982F84EA809374008091740087FFFCCF6D
:1002000080917100887F8830D9F780ED80937300EA
:1002100084E8809374008091740087FFFCCF809104
:100220007100887F8831D9F79093730084E88093B8
:1002300074008091740087FFFCCF80917100887FEB
:100240008832D9F784EA809374008091740087FF24
:10025000FCCF80917100887F8031D9F781ED809348
:10026000730084E8809374008091740087FFFCCF52
:1002700080917100887F8034D9F784E8809374007E
:100280008091740087FFFCCF80917100887F883552
:10029000D9F78091730094E99093740008958BE6E8
:1002A00063E00E94BC008AE165E00E94BC008AE62F
:1002B00060E20E94BC0084E26DE00E94BC0087E620
:1002C0006FE00E94BC008EE26CE00E94BC008FE2F6
:1002D0006AE00E94BC0080E361E80E94BC0086E600
:1002E00061E10E94BC0084E363E10E94BC0085E2FE
:1002F0006CE80E94BC0086E260E10E94BC0087E2DC
:1003000061E80E94BC0088E26CE80E94BC0089E2BF
:1003100061E10E94BC008AE261E80E94BC008BE2BD
:100320006CE80E94BC008CE262E10E94BC008DE29D
:1003300061E80E94BC0080E197E220E931E0F90128
:100340003197F1F70197D9F789E40E94F80090E01E
:10035000A0E0B0E0BC01CD010E94E10E60939C02E0
:1003600070939D0280939E0290939F028AE40E9464
:10037000F80090E0A0E0B0E0BC01CD010E94E10EE9
:100380006093300270933102809332029093330273
:100390008BE40E94F80090E0A0E0B0E0BC01CD0149
:1003A0000E94E10E6093750270937602809377024B
:1003B0009093780280E197E220E931E0F9013197EA
:1003C000F1F70197D9F785E26CE80E94BC0086E25C
:1003D00063E00E94BC0087E262ED0E94BC0088E2FC
:1003E0006CE80E94BC0089E265E00E94BC008AE2E1
:1003F00062ED0E94BC008BE26CE80E94BC008CE2C3
:1004000067E00E94BC008DE262ED0E94BC0008958E
:100410008BE30E94F800809363028CE30E94F80053
:100420008093A4028DE30E94F8008093BB028EE3C8
:100430000E94F800809321028FE30E94F8008093CD
:100440002B0280E40E94F8008093410283E40E9422
:10045000F80080937E0284E40E94F8008093BA0240
:1004600085E40E94F8008093200286E40E94F80050
:100470008093610287E40E94F8008093400288E440
:100480000E94F8008093620289E40E94F800809341
:1004900079028AE40E94F800809368028BE40E944B
:1004A000F80080934C028CE40E94F8008093B5021F
:1004B0008DE40E94F80080932A028EE40E94F800E6
:1004C00080937F0208952F923F924F925F926F9296
:1004D0007F928F929F92AF92BF92CF92DF92EF92D4
:1004E000FF920F931F93CF93DF93222433240E9414
:1004F0000802209163028091A402522E442490E0CD
:10050000842995299093430280934202E09034021B
:10051000F09035020091360210913702809142022C
:100520009091430261E070EC681B790B882777FD9E
:100530008095982F0E942F0E9B01AC01C801B70136
:100540000E94FC0B60933402709335028093360254
:10055000909337022091BB0280912102722E662473
:1005600090E0862997299093430280934202E0907D
:100570001002F0901102009112021091130260918A
:10058000420270914302709561957F4F882777FDF5
:100590008095982F0E942F0E9B01AC01C801B701D6
:1005A0000E94FC0B60931002709311028093120260
:1005B0009093130220912B0280914102922E882465
:1005C00090E0882999299093430280934202E09019
:1005D0005902F0905A0200915B0210915C02609106
:1005E000420270914302882777FD8095982F0E94E0
:1005F0002F0E9B01AC01C801B7010E94FC0B609358
:10060000590270935A0280935B0290935C0220918E
:100610007E028091BA02B22EAA2490E08A299B29F8
:100620009093430280934202E0901C02F0901D02DE
:1006300000911E0210911F026091420270914302CC
:10064000882777FD8095982F0E942F0E9B01AC0183
:10065000C801B7010E94FC0B60931C0270931D023D
:1006600080931E0290931F022091200280916102CC
:10067000D22ECC2490E08C299D2990934302809324
:100680004202E090AD02F090AE020091AF021091F4
:10069000B0026091420270914302882777FD8095F5
:1006A000982F0E942F0E9B01AC01C801B7010E9438
:1006B000FC0B6093AD027093AE028093AF029093F7
:1006C000B0022091400280916202D22FC0E090E0FF
:1006D0008C2B9D2B9093430280934202E090550215
:1006E000F090560200915702109158026091420218
:1006F00070914302882777FD8095982F0E942F0ED6
:100700009B01AC01C801B7010E94FC0B609355022C
:1007100070935602809357029093580288EE93E0AC
:10072000E0E9F1E03197F1F70197D1F70894211C46
:10073000311C8AE02816310409F0D9CE60913402C8
:1007400070913502809136029091370220E030E0BE
:1007500040E251E40E94230D60933402709335020D
:1007600080933602909337026091100270911102CB
:10077000809112029091130220E030E040E251E4B7
:100780000E94230D60931002709311028093120255
:10079000909313026091590270915A0280915B020A
:1007A00090915C0220E030E040E251E40E94230D91
:1007B0006093590270935A0280935B0290935C029B
:1007C00060911C0270911D0280911E0290911F0287
:1007D00020E030E040E251E40E94230D60931C02CF
:1007E00070931D0280931E0290931F026091AD02D0
:1007F0007091AE028091AF029091B00220E030E0A3
:1008000040E251E40E94230D6093AD027093AE026A
:100810008093AF029093B00260915502709156029E
:10082000809157029091580220E030E040E251E47C
:100830000E94230D609355027093560280935702D5
:10084000909358028091340290913502A091360223
:10085000B091370280933C0290933D02A0933E02F8
:10086000B0933F028091100290911102A091120268
:10087000B09113028093220290932302A09324024A
:10088000B09325028091590290915A02A0915B0287
:10089000B0915C028093A5029093A602A093A70258
:1008A000B093A80280911C0290911D02A0911E029B
:1008B000B0911F028093380290933902A0933A02BC
:1008C000B0933B028091AD029091AE02A091AF0235
:1008D000B091B0028093180290931902A0931A026B
:1008E000B0931B028091550290915602A09157023D
:1008F000B091580280935D0290935E02A0935F02D4
:10090000B0936002DF91CF911F910F91FF90EF9014
:10091000DF90CF90BF90AF909F908F907F906F901F
:100920005F904F903F902F9008955D9BFECF8CB9C4
:1009300008959C0197FF07C05D9BFECF30952195E0
:100940003F4F8DE203C05D9BFECF80E28CB95D9B83
:10095000FECFC90160E177E20E944F11605D6CB982
:100960005D9BFECFC90160E177E20E944F1168EE06
:1009700073E00E944F11605D6CB95D9BFECFC901B1
:1009800068EE73E00E944F1164E670E00E944F1120
:10099000605D6CB95D9BFECFC90164E670E00E94AA
:1009A0004F116AE070E00E944F11605D6CB95D9B71
:1009B000FECFC9016AE070E00E944F11805D8CB9E2
:1009C00008952F923F924F925F926F927F928F92F3
:1009D0009F92AF92BF92CF92DF92EF92FF920F93CE
:1009E0001F93DF93CF93CDB7DEB72E970FB6F89452
:1009F000DEBF0FBECDBF1BB888E08AB996E09093EA
:100A000095001092900087E689B984E08093740085
:100A10008CE08093700093BF83E882BF81E087BF42
:100A20000E944F010E94630280E88FBF0E9408026B
:100A30008091940290919502A0919602B0919702B4
:100A400080932C0290932D02A0932E02B0932F023C
:100A50008091900290919102A0919202B0919302A4
:100A60008093A0029093A102A093A202B093A3024C
:100A700080918C0290918D02A0918E02B0918F0294
:100A800080936D0290936E02A0936F02B0937002F8
:100A9000209163028091A4022A83198290E0298127
:100AA0003A81822B932B9093430280934202609170
:100AB000420270914302709561957F4F882777FDC0
:100AC0008095982F0E942F0E609334027093350208
:100AD00080933602909337022091BB0280912102CD
:100AE0002C831B8290E0AB81BC818A2B9B2B909343
:100AF00043028093420260914202709143027095DA
:100B000061957F4F882777FD8095982F0E942F0E43
:100B1000609310027093110280931202909313025B
:100B200020912B02809141022E831D8290E0ED8165
:100B3000FE818E2B9F2B9093430280934202609103
:100B4000420270914302882777FD8095982F0E947A
:100B50002F0E6093590270935A0280935B02909318
:100B60005C0220917E028091BA0228871F8290E069
:100B70002F813885822B932B9093430280934202DE
:100B80006091420270914302882777FD8095982FEB
:100B90000E942F0E60931C0270931D0280931E0210
:100BA00090931F0220912002809161022A8719866A
:100BB00090E0A985BA858A2B9B2B90934302809362
:100BC00042026091420270914302882777FD80952E
:100BD000982F0E942F0E6093AD027093AE02809307
:100BE000AF029093B00220914002809162022C8764
:100BF0001B8690E0EB85FC858E2B9F2B9093430208
:100C0000809342026091420270914302882777FDEF
:100C10008095982F0E942F0E609355027093560274
:100C20008093570290935802209179028091680234
:100C3000322E222490E082299329909343028093BC
:100C400042026091420270914302E0909C02F09057
:100C50009D0200919E0210919F02882777FD80954A
:100C6000982F0E942F0E5B016C01C801B70120E094
:100C700030E040E053E40E94FC0B20E030E040E82C
:100C80005BE30E94290C9B01AC01C601B5010E94E7
:100C9000290C6093690270936A0280936B029093AF
:100CA0006C0220914C028091B502522E442490E0B7
:100CB00084299529909343028093420260914202D5
:100CC00070914302E0903002F090310200913202C4
:100CD00010913302882777FD8095982F0E942F0E60
:100CE0005B016C01C801B70120E030E040E053E453
:100CF0000E94FC0B20E030E040E85BE30E94290CFE
:100D00009B01AC01C601B5010E94290C60930C0245
:100D100070930D0280930E0290930F0220912A028D
:100D200080917F022E871D8690E02D853E85822B47
:100D3000932B909343028093420260914202709100
:100D40004302E0907502F0907602009177021091D4
:100D50007802882777FD8095982F0E942F0E5B01DF
:100D60006C01C801B70120E030E040E053E40E948C
:100D7000FC0B20E030E040E85BE30E94290C9B0183
:100D8000AC01C601B5010E94290C60934D0270931D
:100D90004E0280934F029093500260911C0270911A
:100DA0001D0280911E0290911F0220913802309105
:100DB000390240913A0250913B020E94CB0B20E055
:100DC00030E043E053E40E94230D60931C027093D3
:100DD0001D0280931E0290931F026091AD027091DC
:100DE000AE028091AF029091B00220911802309132
:100DF000190240911A0250911B020E94CB0B20E075
:100E000030E043E053E40E94230D6093AD02709301
:100E1000AE028093AF029093B00260915502709140
:100E20005602809157029091580220915D023091B4
:100E30005E0240915F02509160020E94CB0B20E065
:100E400030E043E053E40E94230D60935502709319
:100E500056028093570290935802A0901002B090CF
:100E60001102C0901202D0901302209134023091EE
:100E700035024091360250913702CA01B9010E94F1
:100E8000290C7B018C012091590230915A0240912A
:100E90005B0250915C02CA01B9010E94290C9B01BE
:100EA000AC01C801B7010E94FC0B0E9457139B01C3
:100EB000AC01D7FAD094D7F8D094C601B5010E94FE
:100EC000230D0E94E71121EE3EE245E652E40E9426
:100ED000290C6093A9027093AA028093AB029093AD
:100EE000AC02A0903402B0903502C0903602D0908F
:100EF000370220911002309111024091120250915C
:100F00001302CA01B9010E94290C7B018C012091B6
:100F1000590230915A0240915B0250915C02CA0121
:100F2000B9010E94290C9B01AC01C801B7010E94C4
:100F3000FC0B0E9457139B01AC01C601B5010E9436
:100F4000230D0E94E71121EE3EE245E652E40E94A5
:100F5000290C6093710270937202809373029093D4
:100F6000740260911C0270911D0280911E0290918A
:100F70001F02209108023091090240910A0250910B
:100F80000B02E0902C02F0902D0200912E021091A5
:100F90002F020E94290CA80197010E94FC0B60936C
:100FA00098027093990280939A0290939B026091A9
:100FB000AD027091AE028091AF029091B00220918B
:100FC00008023091090240910A0250910B02E09010
:100FD000A002F090A1020091A2021091A3020E942F
:100FE000290CA80197010E94FC0B60936402709386
:100FF000650280936602909367026091550270913A
:101000005602809157029091580220910802309127
:10101000090240910A0250910B02E0906D02F0909B
:101020006E0200916F02109170020E94290CA801BB
:1010300097010E94FC0B6093260270932702809315
:1010400028029093290280E090E0A0E0B0E0809335
:10105000080290930902A0930A02B0930B028FE852
:1010600092ECA5E7BFE38093B6029093B702A093FA
:10107000B802B093B9026091B6027091B702809144
:10108000B8029091B9022091980230919902409152
:101090009A0250919B02E090B602F090B702009144
:1010A000B8021091B9026090A9027090AA028090D3
:1010B000AB029090AC020E94290C5B016C0160E0D5
:1010C00070E080E89FE3A80197010E94CB0BA40188
:1010D00093010E94290C9B01AC01C601B5010E943D
:1010E000FC0B609394027093950280939602909308
:1010F00097026091B6027091B7028091B802909108
:10110000B9022091640230916502409166025091CB
:101110006702E090B602F090B7020091B802109119
:10112000B902609071027090720280907302909088
:1011300074020E94290C5B016C0160E070E080E8A1
:101140009FE3A80197010E94CB0BA40193010E9489
:10115000290C9B01AC01C601B5010E94FC0B6093F8
:101160009002709391028093920290939302609107
:10117000690270916A0280916B0290916C0220E08A
:1011800030E040E751E40E94CB0B26E636E646E627
:101190005FE30E94290C6093B1027093B2028093C6
:1011A000B3029093B40260910C0270910D02809191
:1011B0000E0290910F0220E030E042E852E40E94DB
:1011C000FC0B609344027093450280934602909317
:1011D000470260914D0270914E0280914F029091B2
:1011E000500220E030E04AEF52E40E94FC0B24E180
:1011F0003EEA47E05FE30E94290C60938802709307
:10120000890280938A0290938B026091B10270915F
:10121000B2028091B3029091B402E0908802F09003
:10122000890200918A0210918B0229EA39E34FEA80
:101230005EE30E94290C5B016C01C801B70127E83D
:101240003AE840E75FE30E94290C9B01AC01C6012C
:10125000B5010E94FC0B20E030E04DE053E40E9419
:10126000CB0B609314027093150280931602909337
:10127000170260914402709145028091460290915C
:101280004702E0908802F090890200918A02109152
:101290008B0229EA39E34FEA5EE30E94290C5B01E5
:1012A0006C01C801B70127E83AE840E75FE30E9414
:1012B000290C9B01AC01C601B5010E94FC0B20E08A
:1012C00030E04FE053E40E94CB0B609384027093B4
:1012D00085028093860290938702809126029091E6
:1012E0002702A0912802B091290280935102909385
:1012F0005202A0935302B093540260911402709171
:10130000150280911602909117022091840230916B
:10131000850240918602509187020E94BC1121EE05
:101320003EE245E652EC0E94290C6093480270931D
:10133000490280934A0290934B028FE195E8ABE615
:10134000BFE38093800290938102A0938202B093C6
:10135000830260919402709195028091960290911F
:10136000970220E030E040E251E40E94FF0D882324
:101370000CF072C060919402709195028091960277
:101380009091970220E030E040E251EC0E94CF0DB6
:1013900018160CF061C060919002709191028091DA
:1013A00092029091930220E030E040E251E40E94EA
:1013B000FF0D88230CF050C0609190027091910253
:1013C000809192029091930220E030E040E251EC53
:1013D0000E94CF0D18160CF03FC0609180027091F2
:1013E000810280918202909183022091510230917A
:1013F00052024091530250915402E0908002F090CA
:1014000081020091820210918302609048027090E4
:10141000490280904A0290904B020E94290C5B0185
:101420006C0160E070E080E89FE3A80197010E94F2
:10143000CB0BA40193010E94290C9B01AC01C601B6
:10144000B5010E94FC0B60938C0270938D02809317
:101450008E0290938F0210C080915102909152029F
:10146000A0915302B091540280938C0290938D020C
:10147000A0938E02B0938F026091940270919502B6
:1014800080919602909197020E948D0EDC01CB0113
:101490000E9499045D9BFECF99E09CB960919002F7
:1014A0007091910280919202909193020E948D0E10
:1014B000DC01CB010E9499045D9BFECFA9E0ACB991
:1014C00060918C0270918D0280918E0290918F02BA
:1014D0000E948D0EDC01CB010E9499045D9BFECF22
:1014E000BAE0BCB95D9BFECFEDE0ECB988EE93E0CD
:1014F000E0E9F1E03197F1F70197D1F797CAA0E061
:10150000B0E0E5E8FAE00C947611DC012B01FA0179
:101510009C91923008F439C1EB018881823008F443
:1015200033C1943069F4843009F02FC111969C9135
:1015300011978981981709F428C1A0E0B1E025C16D
:10154000843009F421C18230A9F4923009F01DC120
:101550009A01AD0188E0EA010990AE01E901099222
:101560009E018150C1F7E201898111969C918923E6
:10157000818308C1923009F407C112962D903C90E6
:101580001397EB018A819B811496AD90BD90CD900D
:10159000DC901797EC80FD800E811F819101281B44
:1015A000390BB90137FF04C066277727621B730B1D
:1015B000603271050CF061C0121613066CF537012C
:1015C0004801062E04C096948794779467940A94F1
:1015D000D2F721E030E040E050E004C0220F331F9A
:1015E000441F551F6A95D2F721503040404050406B
:1015F0002E213F214023512321153105410551055D
:1016000021F021E030E040E050E079018A01E62855
:10161000F728082919293CC0232BD1F1260E371EA3
:1016200035014601062E04C09694879477946794FA
:101630000A94D2F721E030E040E050E004C0220FED
:10164000331F441F551F6A95D2F721503040404048
:1016500050402A213B214C215D21211531054105B6
:10166000510521F021E030E040E050E059016A01ED
:10167000A628B728C828D9280BC0821593052CF0B6
:101680001C01AA24BB24650103C0EE24FF248701AA
:1016900011969C91D20111968C91981709F445C02E
:1016A000992339F0A80197012A193B094C095D09D2
:1016B00006C0A60195012E193F09400B510B57FD9D
:1016C00008C0118233822282248335834683578364
:1016D0001DC081E081833382228288279927DC0123
:1016E000821B930BA40BB50B84839583A683B783CE
:1016F0000DC0220F331F441F551F2483358346839B
:1017000057838281938101979383828324813581DA
:1017100046815781DA01C9010197A109B1098F5F9B
:101720009F4FAF4FBF4328F30BC091833382228278
:10173000EA0CFB1C0C1D1D1DE482F5820683178339
:1017400083E08083248135814681578157FF1AC009
:10175000C901AA2797FDA095BA2F81709070A0703B
:10176000B0705695479537952795822B932BA42BD0
:10177000B52B84839583A683B78382819381019659
:1017800093838283DF0101C0D201CD01CDB7DEB7E3
:10179000E2E10C949211A0E2B0E0E1EDFBE00C94E8
:1017A000821169837A838B839C832D833E834F834D
:1017B0005887E9E0EE2EF12CEC0EFD1ECE010196CD
:1017C000B7010E947E108E010F5E1F4FCE0105965D
:1017D000B8010E947E108A8991E089278A8BC7010F
:1017E000B801AE01475E5F4F0E947F0A0E94A90FB9
:1017F000A096E6E00C949E11A0E2B0E0E2E0FCE0EE
:101800000C94821169837A838B839C832D833E831E
:101810004F835887F9E0EF2EF12CEC0EFD1ECE0120
:101820000196B7010E947E108E010F5E1F4FCE0100
:101830000596B8010E947E10C701B801AE01475E4F
:101840005F4F0E947F0A0E94A90FA096E6E00C94C9
:101850009E11A0E2B0E0EFE2FCE00C947611698307
:101860007A838B839C832D833E834F835887CE015D
:101870000196BE01675F7F4F0E947E10CE010596E4
:10188000BE016F5E7F4F0E947E109985923088F076
:1018900089898230C8F0943019F4823051F404C040
:1018A000843029F4923081F480E091E0C6C0923017
:1018B00049F420E09A858A89981321E02A87CE018D
:1018C0000996BBC0823049F420E09A858A89981332
:1018D00021E02A8BCE014196B0C02D843E844F84F6
:1018E00058886D887E888F88988CEE24FF24870125
:1018F000AA24BB24650140E050E060E070E0E0E035
:10190000F0E0C10181709070892BE9F0E60CF71CC2
:10191000081D191D9A01AB012A0D3B1D4C1D5D1DB3
:1019200080E090E0A0E0B0E0E614F70408051905B7
:1019300020F481E090E0A0E0B0E0BA01A901480FF6
:10194000591F6A1F7B1FAA0CBB1CCC1CDD1C97FEF9
:1019500008C081E090E0A0E0B0E0A82AB92ACA2A35
:10196000DB2A3196E032F10549F0660C771C881CC1
:10197000991C5694479437942794C3CFFA85EA89E3
:101980002B893C898B859C85280F391F2E5F3F4F03
:1019900017C0CA0181709070892B61F01695079568
:1019A000F794E79480E090E0A0E0B0E8E82AF92A14
:1019B0000A2B1B2B76956795579547952F5F3F4FC1
:1019C00077FDE7CF0CC0440F551F661F771F17FD2B
:1019D0004160EE0CFF1C001F111F215030404030B1
:1019E00090E0590790E0690790E4790760F32B8F46
:1019F0003C8FDB01CA018F779070A070B07080348B
:101A00009105A105B10561F447FD0AC0E114F10497
:101A10000105110529F0405C5F4F6F4F7F4F407803
:101A20001A8EFE1711F081E08A8F4D8F5E8F6F8FB7
:101A300078A383E0898FCE0149960E94A90FA096D2
:101A4000E2E10C949211A8E1B0E0E9E2FDE00C942F
:101A50007E1169837A838B839C832D833E834F839E
:101A60005887B9E0EB2EF12CEC0EFD1ECE0101964D
:101A7000B7010E947E108E010F5E1F4FCE010596AA
:101A8000B8010E947E102985223008F47EC0398971
:101A9000323010F4B8017CC08A859A8989278A87F8
:101AA000243011F0223031F4231709F06EC060E0C9
:101AB00071E06EC0343039F41D861E861F86188A88
:101AC0001C861B8604C0323021F484E08987B7016C
:101AD0005FC02B853C858B899C89281B390B3C87F3
:101AE0002B87ED84FE840F851889AD88BE88CF884A
:101AF000D88CEA14FB040C051D0540F4EE0CFF1C09
:101B0000001F111F215030403C872B8720E030E020
:101B100040E050E080E090E0A0E0B0E460E070E001
:101B2000EA14FB040C051D0540F0282B392B4A2B29
:101B30005B2BEA18FB080C091D09B695A79597952C
:101B40008795EE0CFF1C001F111F6F5F7F4F6F31D9
:101B5000710531F7DA01C9018F779070A070B0700C
:101B600080349105A105B10561F427FD0AC0E11497
:101B7000F1040105110529F0205C3F4F4F4F5F4FE5
:101B800020782D873E874F87588BBE01675F7F4F38
:101B9000CB010E94A90F6896EAE00C949A11A8E183
:101BA000B0E0E5EDFDE00C94821169837A838B83CC
:101BB0009C832D833E834F83588789E0E82EF12C48
:101BC000EC0EFD1ECE010196B7010E947E108E0123
:101BD0000F5E1F4FCE010596B8010E947E108985C9
:101BE000823040F08989823028F0C701B8010E9414
:101BF000F61001C08FEF6896E6E00C949E11A8E104
:101C0000B0E0E5E0FEE00C94821169837A838B8377
:101C10009C832D833E834F83588789E0E82EF12CE7
:101C2000EC0EFD1ECE010196B7010E947E108E01C2
:101C30000F5E1F4FCE010596B8010E947E10898568
:101C4000823040F08989823028F0C701B8010E94B3
:101C5000F61001C081E06896E6E00C949E11A8E0C1
:101C6000B0E0E5E3FEE00C947F119B01AC0183E062
:101C70008983DA01C9018827B7FD83959927AA27A7
:101C8000BB27B82E211531054105510519F482E015
:101C900089833AC08823A9F0203080E0380780E0AB
:101CA000480780E8580729F460E070E080E09FEC86
:101CB00030C0EE24FF248701E21AF30A040B150B4F
:101CC00002C079018A018EE1C82ED12CDC82CB8240
:101CD000ED82FE820F831887C801B7010E945A0F58
:101CE00001971816190684F4082E04C0EE0CFF1C88
:101CF000001F111F0A94D2F7ED82FE820F8318870E
:101D0000C81AD90ADC82CB82BA82CE0101960E941F
:101D1000A90F2896E9E00C949B11ACE0B0E0E3E950
:101D2000FEE00C94861169837A838B839C83CE01B9
:101D30000196BE016B5F7F4F0E947E108D818230C5
:101D400061F1823050F1843021F48E81882351F189
:101D50002EC02F81388537FD20C06E812F3131058F
:101D60001CF06623F9F023C08EE190E0821B930BF8
:101D700029853A854B855C8504C0569547953795EE
:101D800027958A95D2F76623B1F050954095309506
:101D900021953F4F4F4F5F4F0EC020E030E040E0B5
:101DA00050E009C02FEF3FEF4FEF5FE704C020E0A6
:101DB00030E040E050E8B901CA012C96E2E00C9412
:101DC000A211A8E0B0E0E7EEFEE00C947E117B01EA
:101DD0008C01611571058105910519F482E08983F3
:101DE00060C083E089838EE1C82ED12CDC82CB8257
:101DF000ED82FE820F831887C801B7010E945A0F37
:101E0000FC013197F7FF3BC0222733272E1B3F0BE6
:101E100057016801022E04C0D694C794B794A794C2
:101E20000A94D2F740E050E060E070E081E090E09A
:101E3000A0E0B0E004C0880F991FAA1FBB1F2A951D
:101E4000D2F70197A109B1098E219F21A023B123C7
:101E50000097A105B10521F041E050E060E070E09D
:101E60004A295B296C297D294D835E836F8378879E
:101E70008EE190E08E1B9F0B9C838B8312C030976A
:101E800081F00E2E04C0EE0CFF1C001F111F0A94DF
:101E9000D2F7ED82FE820F831887CE1ADF0ADC822A
:101EA000CB821A82CE0101960E94A90F2896EAE001
:101EB0000C949A11EF92FF920F931F937B018C0168
:101EC00080E0E81680E0F80681E0080780E0180767
:101ED00088F48FEFE816F1040105110531F028F0C0
:101EE00088E090E0A0E0B0E017C080E090E0A0E0E3
:101EF000B0E012C080E0E81680E0F80680E0080755
:101F000081E0180728F088E190E0A0E0B0E004C08C
:101F100080E190E0A0E0B0E020E230E040E050E07E
:101F2000281B390B4A0B5B0B04C016950795F794D9
:101F3000E7948A95D2F7F701E85FFE4F8081281B6E
:101F4000310941095109C9011F910F91FF90EF908B
:101F50000895DF92EF92FF920F931F93FC01E480AC
:101F6000F58006811781D1808081823048F480E03D
:101F700090E0A0E1B0E0E82AF92A0A2B1B2BA5C0CB
:101F8000843009F49FC0823021F4EE24FF248701BD
:101F900005C0E114F1040105110519F4E0E0F0E0D9
:101FA00096C0628173819FEF623879070CF05BC045
:101FB00022E83FEF261B370B2A3131052CF020E0B9
:101FC00030E040E050E02AC0B801A701022E04C072
:101FD00076956795579547950A94D2F781E090E0FA
:101FE000A0E0B0E004C0880F991FAA1FBB1F2A956C
:101FF000D2F70197A109B1098E219F21A023B12316
:102000000097A105B10521F081E090E0A0E0B0E0EB
:102010009A01AB01282B392B4A2B5B2BDA01C90122
:102020008F779070A070B07080349105A105B105D4
:1020300039F427FF09C0205C3F4F4F4F5F4F04C06A
:10204000215C3F4F4F4F5F4FE0E0F0E02030A0E0D9
:102050003A07A0E04A07A0E45A0710F0E1E0F0E0F8
:1020600079018A0127C06038710564F5FB01E158E8
:10207000FF4FD801C7018F779070A070B070803487
:102080009105A105B10539F4E7FE0DC080E490E0AB
:10209000A0E0B0E004C08FE390E0A0E0B0E0E80E84
:1020A000F91E0A1F1B1F17FF05C016950795F79409
:1020B000E794319687E016950795F794E7948A950B
:1020C000D1F705C0EE24FF248701EFEFF0E06E2F7B
:1020D000679566276795902F9F77D794DD24D794CF
:1020E0008E2F8695492F462B582F5D29B701CA019F
:1020F0001F910F91FF90EF90DF900895FC01DB019D
:10210000408151812281622F6F7770E0221F222748
:10211000221F9381892F880F822B282F30E0991F4F
:102120009927991F11969C93119721153105A9F5AF
:10213000411551056105710511F482E037C082E84F
:102140009FEF13969C938E9312979A01AB0167E0D1
:10215000220F331F441F551F6A95D1F783E08C93DC
:102160000DC0220F331F441F551F12968D919C9155
:102170001397019713969C938E931297203080E0CB
:10218000380780E0480780E4580758F314962D93E9
:102190003D934D935C93179708952F3F310579F444
:1021A000411551056105710519F484E08C9308957A
:1021B00064FF03C081E08C9312C01C9210C02F57A3
:1021C000304013963C932E93129783E08C9387E0D4
:1021D000440F551F661F771F8A95D1F770641496B8
:1021E0004D935D936D937C93179708951F93DC0136
:1021F000FB019C91923008F447C08081823008F442
:1022000043C0943051F411961C91843099F581812A
:10221000682F70E0611B71093FC0843021F092305B
:1022200031F48230B9F18181882389F12DC0119672
:102230001C9111978230F1F081811817D9F4129610
:102240002D913C911397828193818217930794F08B
:1022500028173907BCF014968D919D910D90BC9173
:10226000A02D2481358146815781281739074A07D7
:102270005B0718F4112341F00AC082179307A407E3
:10228000B50740F4112319F061E070E005C06FEF6D
:102290007FEF02C060E070E0CB011F91089597FBD3
:1022A000092E07260AD077FD04D00CD006D00020D6
:1022B0001AF4709561957F4F0895F6F79095819582
:1022C0009F4F0895AA1BBB1B51E107C0AA1FBB1F4C
:1022D000A617B70710F0A61BB70B881F991F5A95B2
:1022E000A9F780959095BC01CD0108952F923F925A
:1022F0004F925F926F927F928F929F92AF92BF9216
:10230000CF92DF92EF92FF920F931F93CF93DF93C1
:10231000CDB7DEB7CA1BDB0B0FB6F894DEBF0FBE1E
:10232000CDBF09942A88398848885F846E847D846B
:102330008C849B84AA84B984C884DF80EE80FD806D
:102340000C811B81AA81B981CE0FD11D0FB6F894E3
:10235000DEBF0FBECDBFED010895F5D058F080E887
:1023600091E009F49EEFF6D028F040E851E059F4EE
:102370005EEF09C0C0C028C1E92FE07803D168F33F
:10238000092E052AC1F3261737074807590738F0E1
:102390000E2E07F8E02569F0E025E0640AC0EF633F
:1023A00007F8009407FADB01B9019D01DC01CA01BD
:1023B000AD01EF9341D0D5D00AD05F91552331F0D4
:1023C0002BED3FE049E450FD49EC16CA0895DF9338
:1023D000DD27B92FBF7740E85FE3161617064807D9
:1023E0005B0710F4D92FF7D09F938F937F936F9350
:1023F0009CD1ECE8F0E082D0B4D02F913F914F9186
:102400005F91FAD0DD2349F09058A2EA2AED3FE02F
:1024100049EC5FE3D0785D2798D1DF91A2C09AD0D4
:1024200040F091D030F021F45F3F19F05EC05111BF
:10243000CCC061C0A7D098F39923C9F35523B1F359
:10244000951B550BBB27AA2762177307840738F023
:102450009F5F5F4F220F331F441FAA1FA9F333D082
:102460000E2E3AF0E0E830D091505040E695001C36
:10247000CAF729D0FE2F27D0660F771F881FBB1FF2
:10248000261737074807AB07B0E809F0BB0B802DCC
:10249000BF01FF2793585F4F2AF09E3F510568F018
:1024A00024C093C05F3FECF3983EDCF386957795AC
:1024B0006795B795F7959F5FC9F7880F911D96951A
:1024C000879597F90895E1E0660F771F881FBB1F76
:1024D000621773078407BA0720F0621B730B840B23
:1024E000BA0BEE1F88F7E095089597F99F6780E88B
:1024F00070E060E008959FEF80EC0895DF93CF9344
:102500001F930F93FF92EF92DF927B018C016894EF
:1025100005C0DA2EEF0170D0FE01E894A591259157
:10252000359145915591AEF3EF010FD1FE01970121
:10253000A801DA9479F7DF90EF90FF900F911F9147
:10254000CF91DF91089500240A94161617061806F5
:102550000906089500240A941216130614060506A7
:102560000895092E0394000C11F4882352F0BB0F38
:1025700040F4BF2B11F460FF04C06F5F7F4F8F4F9B
:102580009F4F089557FD9058440F551F59F05F3FD6
:1025900071F04795880F97FB991F61F09F3F79F085
:1025A00087950895121613061406551FF2CF469507
:1025B000F1DF08C0161617061806991FF1CF869589
:1025C0007105610508940895E894BB27662777276D
:1025D000CB0197F908959B01AC0160E070E080E8C1
:1025E0009FE331CAB0DF28F0B5DF18F0952309F07A
:1025F0007CCF81CF1124E9CFC5DFA0F3959FD1F324
:10260000950F50E0551F629FF001729FBB27F00DA0
:10261000B11D639FAA27F00DB11DAA1F649F6627F5
:10262000B00DA11D661F829F2227B00DA11D621F44
:10263000739FB00DA11D621F839FA00D611D221FFE
:10264000749F3327A00D611D231F849F600D211DE2
:10265000822F762F6A2F11249F5750408AF0E1F085
:1026600088234AF0EE0FFF1FBB1F661F771F881FCE
:1026700091505040A9F79E3F510570F036CFA5CF3D
:102680005F3FECF3983EDCF3869577956795B795B9
:10269000F795E7959F5FC1F7FE2B880F911D9695E3
:1026A000879597F9089511F40EF425CFA1C072DF34
:1026B000D0F39923D9F3CEF39F57550B87FFA6D0BC
:1026C0000024A0E640EA900180585695979528F49A
:1026D000805C660F771F881F20F026173707480792
:1026E00030F4621B730B840B202931294A2BA695E9
:1026F00017940794202531254A2758F7660F771F2E
:10270000881F20F026173707480730F4620B730B39
:10271000840B200D311D411DA09581F7B901842F37
:102720009158880F9695879508959B01AC0191C8A3
:102730000ADF30F00FDF20F031F49F3F11F41EF478
:10274000DACE0EF4E095E7FBD0CEE92F1BDF80F365
:10275000BA17620773078407950718F071F49EF59E
:1027600033CF0EF4E0950B2EBA2FA02D0B01B9013B
:1027700090010C01CA01A0011124FF27591B99F0F7
:10278000593F50F4503E68F11A16F040A22F232F03
:10279000342F4427585FF3CF469537952795A79553
:1027A000F0405395C9F77EF41F16BA0B620B730BFA
:1027B000840BBAF09150A1F0FF0FBB1F661F771F6B
:1027C000881FC2F70EC0BA0F621F731F841F48F420
:1027D000879577956795B795F7959E3F08F0B3CFA6
:1027E0009395880F08F09927EE0F97958795089590
:1027F0009F3F31F0915020F4879577956795B79575
:10280000880F911D9695879597F90895915050409E
:0E281000660F771F881FD2F70895F894FFCF48
:10281E000000000000000000000102020303030399
:10282E000404040404040404050505050505050552
:10283E000505050505050505060606060606060632
:10284E00060606060606060606060606060606061A
:10285E000606060606060606070707070707070702
:10286E0007070707070707070707070707070707EA
:10287E0007070707070707070707070707070707DA
:10288E0007070707070707070707070707070707CA
:10289E0007070707070707070808080808080808B2
:1028AE00080808080808080808080808080808089A
:1028BE00080808080808080808080808080808088A
:1028CE00080808080808080808080808080808087A
:1028DE00080808080808080808080808080808086A
:1028EE00080808080808080808080808080808085A
:1028FE00080808080808080808080808080808084A
:10290E000808080808080808080808080808080839
:08291E00080808080808080871
:00000001FF
