:100000000C949C000C94C4000C94C4000C94C40088
:100010000C94C4000C94C4000C94C4000C94C40050
:100020000C94C4000C94C4000C94C4000C94C40040
:100030000C94C4000C94C4000C94C4000C94C40030
:100040000C9401060C94C4000C9495050C946F0557
:100050000C94C4000C94C4000C94C4000C94C40010
:100060000C944B060C94C400036EDB363D9A9999B0
:10007000993DABAAAA2A3E000000803F084AD73B20
:100080003BCE016E84BCBFFDC12F3D6C74319ABD67
:1000900056833DDA3D00C77F11BED9E4BB4C3E918B
:1000A0006BAAAABE000000803F072C7AA5BA6CC5D7
:1000B00090DA3B9365FC8BBC53F810FD3C56928361
:1000C0004DBD879D3AB63DCBC9BF5BBE73DA0FC944
:1000D0003F05A84CCDB2D44EB93836A9020C50B960
:1000E000918688083CA6AAAA2ABE000000803F008C
:1000F00000000000250028002B0004040404040470
:1001000004040202020202020303030303030102C6
:100110000408102040800102040810200102040895
:100120001020000000080002010000030407000086
:10013000000000000000E70811241FBECFEFD8E048
:10014000DEBFCDBF24E0A4ECB2E001C01D92AD3A09
:10015000B207E1F712E0A0E0B1E0EAE4F2E202C0A7
:1001600005900D92A43CB107D9F710E0CCE9D0E09E
:1001700004C02197FE010E941811CB39D107C9F79D
:100180000E9423090C9423110C94000090E0FC01C0
:10019000EE5DFE4F2491FC01E25FFE4F3491FC01C5
:1001A000E650FF4FE491EE23B1F1222339F12330E1
:1001B00091F038F42130A9F0223001F584B58F7D1B
:1001C00012C0273091F02830A1F02430B9F480918A
:1001D00080008F7D03C0809180008F7780938000A6
:1001E0000DC084B58F7784BD09C08091B0008F7732
:1001F00003C08091B0008F7D8093B000F0E0EE0FDF
:10020000FF1FE051FF4FA591B4918FB7F894EC9187
:100210003E2B3C938FBF0895CF92DF92EF92FF92D7
:100220000F931F93CF93DF936C017A018B01C0E092
:10023000D0E0CE15DF0589F0D8016D918D01D60192
:10024000ED91FC910190F081E02DC6010995892B7B
:1002500011F47E0102C02196ECCFC701DF91CF914E
:100260001F910F91FF90EF90DF90CF90089500972E
:1002700069F0FC0101900020E9F73197AF01481BBC
:10028000590BBC0181E193E00C940C0180E090E0FB
:100290000895CF93DF930E943701EC0186E291E04D
:1002A0000E9437018C0F9D1FDF91CF9108958F928F
:1002B0009F92AF92BF920F931F93CF93DF93CDB7CF
:1002C000DEB7A1970FB6F894DEBF0FBECDBF19A25F
:1002D000423008F44AE08E010F5D1F4F842E912CAE
:1002E000A12CB12CA50194010E94F610E62FB901B2
:1002F000CA0101501109EA3014F4E05D01C0E95C63
:10030000D801EC93232B242B252B61F7C8010E94E5
:100310003701A1960FB6F894DEBF0FBECDBFDF91B7
:10032000CF911F910F91BF90AF909F908F900895A4
:100330000C9437014F925F926F927F928F929F92AF
:10034000AF92BF92CF92DF92EF92FF926B017C014E
:10035000B42E9B01AC010E94DC10882319F089E2C5
:1003600091E027C026013701E89477F82FEF3FEF9F
:100370004FE75FE7C301B2010E94DC1081110DC09D
:100380002FEF3FEF4FE75FE7C301B2010E941F0D60
:1003900018161CF48DE291E00CC02FEF3FEF4FE7F1
:1003A0005FE4C701B6010E947D10181684F481E352
:1003B00091E0FF90EF90DF90CF90BF90AF909F9033
:1003C0008F907F906F905F904F900C9437012FEF3C
:1003D0003FEF4FE75FECC701B6010E941F0D87FD9D
:1003E000E6CF20E030E0A901C701B6010E941F0D51
:1003F00087FF11C0E0911103F09112030190F08189
:10040000E02D6DE281E193E009954C01F7FAF0945B
:10041000F7F8F09402C0812C912CA12C60E070E0E0
:1004200080E09FE3AB1441F020E030E040E251E493
:100430000E94420FA394F6CF9B01AC01C701B60105
:100440000E94440E2B013C010E94B40F6B017C0101
:100450000E94240D9B01AC01C301B2010E94430E16
:100460002B013C014AE0C701B6010E9457017C0103
:10047000E80CF91CBB2069F0E0911103F091120324
:100480000190F081E02D6EE281E193E00995E80EA4
:10049000F91EDB2CDD2021F120E030E040E251E4C8
:1004A000C301B2010E94850D2B013C010E94B40FD3
:1004B0004B01A12CB12C4AE0C501B4010E945701A7
:1004C000E80EF91EC501B4010E94240D9B01AC0188
:1004D000C301B2010E94430E2B013C01DA94DACF32
:1004E000C701FF90EF90DF90CF90BF90AF909F90AB
:1004F0008F907F906F905F904F900895CF93DF9390
:1005000042E00E949A01EC0186E291E00E943701EC
:100510008C0F9D1FDF91CF91089542E00C949A01BA
:100520000E941E112091100390910F03213208F0B8
:100530004AC08091EC028111FCCF32E03093EC0292
:1005400031E03093EB023FEF3093EA021092E90280
:100550002093E802AFEEB2E048EC52E0FA013E2F01
:10056000341B321718F43D913193F9CF1092C70222
:100570002091C702990F922B9093C7029091C602C7
:10058000913061F41092C6029091C7029093BB0023
:100590009091BC0093FDF8CF95EC01C095EE90933F
:1005A000BC009091EC029230E1F39091EA029F3FFF
:1005B00079F08091EA02803241F08091EA02803342
:1005C00031F084E005C081E003C082E001C083E037
:1005D0001092EE02109210031092ED020895CF9344
:1005E000DF93EA0191E09093ED0280930F03109264
:1005F000EE02109210038EEA93E00E943C0568819F
:100600008EEA93E00E943C050E94920291E08111E3
:1006100090E0892FDF91CF910895EF92FF920F9391
:100620001F93CF93DF9300D0CDB7DEB78EEFE82EC8
:1006300083E0F82E08EE13E02FEF33E04EE06BE39B
:10064000F70180810E947907F701818190E0982F5E
:1006500088272281822B9093FD038093FC03838162
:1006600090E0982F88272481822B9093FB0380931E
:10067000FA03858190E0982F88272681822B90931A
:10068000F9038093F803818590E0982F88272285CD
:10069000822B9093F7038093F603838590E0982F45
:1006A00088272485822B9093F5038093F403858516
:1006B00090E0982F88272685822B9093F3038093D0
:1006C000F203808192E09A83AE014E5F5F4F67E351
:1006D0000E94EF026AE070E080E090E00E94C705AF
:1006E00081E08983AE014F5F5F4F6AE08CE00E943A
:1006F000EF026AE070E080E090E00E94C7052FEF13
:1007000033E046E063E08CE00E947907F7018281E4
:1007100090E0982F88272181822B9093F10380937A
:10072000F003848190E0982F88272381822B909377
:10073000EF038093EE03868190E0982F8827258130
:10074000822B9093ED038093EC030F900F90DF9139
:10075000CF911F910F91FF90EF900895FC01538D61
:10076000448D252F30E0842F90E0821B930B54178B
:1007700010F0CF96089501970895FC01918D828D18
:10078000981761F0828DDF01A80FB11D5D968C91E5
:10079000928D9F5F9F73928F90E008958FEF9FEFF0
:1007A0000895FC01918D828D981731F0828DE80FAC
:1007B000F11D858D90E008958FEF9FEF0895FC0166
:1007C000918D228D892F90E0805C9F4F821B910933
:1007D0008F739927089581E193E00E94DF0321E060
:1007E000892B09F420E0822F0895FC01848DDF011C
:1007F000A80FB11DA35ABF4F2C91848D90E0019694
:100800008F739927848FA689B7892C93A089B18982
:100810008C9180648C93938D848D981306C002888C
:10082000F389E02D80818F7D80830895EF92FF9280
:100830000F931F93CF93DF93EC0181E0888F9B8D03
:100840008C8D981305C0E889F989808185FD24C0C5
:10085000F62E0B8D10E00F5F1F4F0F731127E02E48
:100860008C8DE8120CC00FB607FCFACFE889F98925
:10087000808185FFF5CFCE010E94F503F1CF8B8DEE
:10088000FE01E80FF11DE35AFF4FF0820B8FEA895A
:10089000FB898081806207C0EE89FF896083E889D7
:1008A000F98980818064808381E090E0DF91CF913D
:1008B0001F910F91FF90EF900895CF93DF93EC017C
:1008C000888D8823C9F0EA89FB89808185FD05C070
:1008D000A889B9898C9186FD0FC00FB607FCF5CFAA
:1008E000808185FFF2CFA889B9898C9185FFEDCFF2
:1008F000CE010E94F503E7CFDF91CF91089580E00C
:1009000090E0892B29F00E94EB0381110C940000E8
:1009100008953FB7F8948091A9049091AA04A091FA
:10092000AB04B091AC0426B5A89B05C02F3F19F0CD
:100930000196A11DB11D3FBFBA2FA92F982F88275F
:10094000820F911DA11DB11DBC01CD0142E0660FBA
:10095000771F881F991F4A95D1F7089585ED8093D9
:10096000BC008091BC0084FDFCCF1092EC02089585
:1009700040917F04262F30E0240F311D21323105B4
:10098000DCF42091EC022430C9F4FC0180E090E01A
:10099000861758F430917F042191DC01A35ABB4F94
:1009A000A30FB11D2C930196F3CF80917F04680FA4
:1009B00060937F0480E0089581E0089582E00895C7
:1009C0000895E091C5028091C402E81730F4F0E088
:1009D000E35CFB4F808190E008958FEF9FEF0895D7
:1009E0009091C5028091C402981750F4E92FF0E06D
:1009F000E35CFB4F208130E09F5F9093C50202C013
:100A00002FEF3FEFC90108958091C40290E020913B
:100A1000C502821B91090895CF92DF92EF92FF9257
:100A20000F931F93CF93DF937C01262F972F8A017B
:100A30008091ED02882391F0C62FD72F6E01C40E4E
:100A4000D51ECC15DD0571F06991D701ED91FC91B2
:100A50000190F081E02DC7010995F3CF642F822F1B
:100A60000E94B804C801DF91CF911F910F91FF90B0
:100A7000EF90DF90CF900895CF93DF931F92CDB783
:100A8000DEB769832091ED022223D1F0209110037B
:100A9000203240F021E030E0FC013383228380E00B
:100AA00090E015C08091EE02E82FF0E0E151FD4F9B
:100AB000998190838F5F8093EE028093100305C02D
:100AC00061E0CE0101960E94B80481E090E00F90B1
:100AD000DF91CF910895089580E090E008951F92EE
:100AE0000F920FB60F9211242F933F934F935F9362
:100AF0006F937F938F939F93AF93BF93EF93FF93E6
:100B000081E193E00E94F503FF91EF91BF91AF91D6
:100B10009F918F917F916F915F914F913F912F9115
:100B20000F900FBE0F901F9018951F920F920FB647
:100B30000F9211242F938F939F93EF93FF93E09144
:100B40002103F09122038081E0912703F091280393
:100B500082FD12C0908180912A038F5F8F73209154
:100B60002B03821751F0E0912A03F0E0EF5EFC4F77
:100B7000958F80932A0301C08081FF91EF919F910F
:100B80008F912F910F900FBE0F901F9018958F92FD
:100B90009F92AF92BF92CF92DF92EF92FF926B0142
:100BA0007C010E9489044B015C01C114D104E10461
:100BB000F104F1F00E948904DC01CB018819990944
:100BC000AA09BB09883E9340A105B10570F321E055
:100BD000C21AD108E108F10888EE880E83E0981E59
:100BE000A11CB11CC114D104E104F10419F7DDCF3B
:100BF000FF90EF90DF90CF90BF90AF909F908F903D
:100C000008951F920F920FB60F9211242F933F93C6
:100C10008F939F93AF93BF938091A5049091A60467
:100C2000A091A704B091A8043091A40423E0230F5D
:100C30002D3720F40196A11DB11D05C026E8230F14
:100C40000296A11DB11D2093A4048093A504909346
:100C5000A604A093A704B093A8048091A90490913E
:100C6000AA04A091AB04B091AC040196A11DB11DE2
:100C70008093A9049093AA04A093AB04B093AC040E
:100C8000BF91AF919F918F913F912F910F900FBE88
:100C90000F901F9018951F920F920FB60F9211246C
:100CA0002F933F934F935F936F937F938F939F9374
:100CB000AF93BF93EF93FF938091B900887F803605
:100CC00009F49CC068F5883209F45BC090F4803167
:100CD00009F454C038F4882309F4F6C0883009F4C4
:100CE0004DC0F6C0883109F44CC0803209F45DC0B3
:100CF000EFC0803409F468C048F4803309F455C06B
:100D0000883309F0E5C08093EA02D8C0803509F441
:100D10004FC0883509F45DC0883409F0D9C0D6C009
:100D2000883909F4C7C0A8F4883709F467C038F4D3
:100D3000883609F463C0803709F460C0C9C08838B8
:100D400009F4B8C0803909F45FC0803809F0C0C028
:100D50005BC0803B09F486C038F4803A09F466C071
:100D6000883A09F47FC0B4C0803C09F4A7C0883C2D
:100D700009F4A4C0883B09F48AC0AAC08091C702C4
:100D800010C09091E9028091E802981770F5E09107
:100D9000E90281E08E0F8093E902F0E0E853FD4F15
:100DA00080818093BB0085EC86C08093EA028EC070
:100DB000E091E90281E08E0F8093E9028091BB000F
:100DC000F0E0E853FD4F80839091E9028091E802C2
:100DD0006EC0E091E90281E08E0F8093E90280917C
:100DE000BB00F0E0E853FD4F80838091EB0281115E
:100DF0006DC081E08093C60284EA61C083E0809385
:100E0000EC021092A304CFCF8091A304803208F0AB
:100E100051C0E091A30481E08E0F8093A3048091E0
:100E2000BB00F0E0ED57FB4F8083BDCF85EC809396
:100E3000BC001092EC028091A304803230F4E09167
:100E4000A304F0E0ED57FB4F10826091A30470E023
:100E5000E0918104F091820483E894E00995109276
:100E6000A30436C084E08093EC02109280041092B8
:100E70007F04E0917D04F0917E04099580917F04C8
:100E8000811105C081E080937F0410925D04E091A0
:100E9000800481E08E0F80938004F0E0E35AFB4FE2
:100EA00080818093BB009091800480917F0498178B
:100EB00008F479CF85E88093BC000AC085EC809364
:100EC000BC001092EC0204C01092EA020E94AE0430
:100ED000FF91EF91BF91AF919F918F917F916F9112
:100EE0005F914F913F912F910F900FBE0F901F90E8
:100EF00018952F923F924F925F926F927F928F92AE
:100F00009F92AF92BF92CF92DF92EF92FF920F9398
:100F10001F93CF93DF93CDB7DEB727970FB6F89423
:100F2000DEBF0FBECDBF8F836B83742F59018FB788
:100F3000F894C090A504D090A604E090A704F09087
:100F4000A8048FBF3F80330C812C212C99249394CB
:100F500050E05D834C832801612C712C871608F0CA
:100F6000A7C09092ED025F8150930F031092EE02A2
:100F7000109210036B818EEA93E07E830E943C0501
:100F80000E9492029092ED025F8150930F031092A3
:100F9000EE02109210037E818091EC028111FCCF51
:100FA0002C813D81281931092132310514F020E2CC
:100FB00030E0213208F020E29092EC029092EB02B5
:100FC0008FEF8093EA021092E902820F8093E80289
:100FD0009092C7028091C70283298093C7028091B3
:100FE000C602813071F41092C6028091C7028093CC
:100FF000BB008091BC0083FDF8CF95EC9093BC00C2
:1010000003C0E5EEE093BC008091EC028130E1F397
:101010008091E902821710F42091E902A8ECB2E075
:10102000EDE3F4E08E2F4DE354E0841B821718F4B7
:101030008D918193F7CF1092C5022093C4029091B5
:10104000C4028091C502981749F10115110591F468
:10105000A501420D511D27FC5A955A8349838EEAFA
:1010600093E07E830E94F004E981FA8180832394D7
:101070007E81E5CF2FB7F8948091A5049091A604C6
:10108000A091A704B091A8042FBF8C199D09AE09A7
:10109000BF0984159505A605B705D0F27E830E9489
:1010A00092027E81872F713208F080E2880E56CF3F
:1010B0000115110509F12FB7F8948091A5049091BD
:1010C000A604A091A704B091A8042FBF8C199D0974
:1010D000AE09BF0920E030E080179107A207B307EF
:1010E00058F0272F30E0822D022C000C990B82172C
:1010F000930714F422242A94822D27960FB6F8948D
:10110000DEBF0FBECDBFDF91CF911F910F91FF903A
:10111000EF90DF90CF90BF90AF909F908F907F9097
:101120006F905F904F903F902F900895BF92CF9215
:10113000DF92EF92FF920F931F93CF93DF9300D034
:10114000CDB7DEB7F82EE62EC42EB22ED02E08EE86
:1011500013E09E012E5F3F4F41E00E9479078823F4
:1011600049F14C2D50E04B1951094F5F5F4F21E081
:1011700030E002C0220F331FBA94E2F72150310948
:10118000042E01C0220F0A94EAF78D2D01C0880FAA
:101190004A95EAF7322F30959A8193232823292BF9
:1011A0002A832983AE014F5F5F4F6E2D8F2D0E94E2
:1011B000EF0201C080E00F900F90DF91CF911F915F
:1011C0000F91FF90EF90DF90CF90BF900895E1E1F5
:1011D000F3E01382128288EE93E0A0E0B0E0848313
:1011E0009583A683B78326E031E03183208325EC05
:1011F00030E03587248724EC30E03787268720ECE1
:1012000030E0318B208B21EC30E0338B228B22ECD1
:1012100030E0358B248B26EC30E0378B268B118E1B
:10122000128E138E148EEEEAF3E013821282848300
:101230009583A683B78388E191E09183808388E6D4
:101240008093FE030895CF93DF93CDB7DEB7669703
:101250000FB6F894DEBF0FBECDBF789484B5826020
:1012600084BD84B5816084BD85B5826085BD85B54A
:10127000816085BD80916E00816080936E001092C8
:101280008100809181008260809381008091810043
:1012900081608093810080918000816080938000D4
:1012A0008091B10084608093B1008091B000816032
:1012B0008093B00080917A00846080937A0080915E
:1012C0007A00826080937A0080917A0081608093B6
:1012D0007A0080917A00806880937A001092C10031
:1012E0001092C5021092C4021092EE0210921003E6
:1012F0001092EC0281E08093EB021092C60282E130
:101300000E94C60083E10E94C6008091B9008E7FD2
:101310008093B9008091B9008D7F8093B90088E4F3
:101320008093B80085E48093BC00E0912103F091A4
:10133000220382E08083E0911D03F0911E0310825E
:10134000E0911F03F091200383E38083109229032F
:10135000E0912503F091260386E08083E09123034A
:10136000F0912403808180618083E0912303F091D8
:101370002403808188608083E0912303F09124031B
:10138000808180688083E0912303F0912403808131
:101390008F7D80838DE691E00E94490101E023E08A
:1013A00042E06BE68091FE030E94960800E022E096
:1013B00044E06BE18091FE030E94960822E044E045
:1013C0006CE18091FE030E949608F090FE0308EE07
:1013D00013E09E012F5F3F4F41E06BE68F2D0E948F
:1013E000790799819F7B99839A83AE014E5F5F4F06
:1013F0006BE68F2D0E94EF0289E891E00E9449017F
:101400009E012F5F3F4F41E065E78091FE030E9400
:101410007907882329F089818F7790E08093FF03F3
:101420008091FF03813719F083E591E002C085E3E5
:1014300091E00E94490168EE73E080E090E00E9434
:10144000C70583EC91E00E944901332433940E9444
:101450000D036091FC037091FD03072E000C880BB7
:10146000990B0E94260D20E030E040E858E30E94EE
:10147000850D4B015C016093E0037093E103809361
:10148000E2039093E3036091FA037091FB03072E4C
:10149000000C880B990B0E94260D20E030E040E8FC
:1014A00058E30E94850D2B013C016093E403709387
:1014B000E5038093E6039093E7036091F80370914E
:1014C000F903072E000C880B990B0E94260D20E0D3
:1014D00030E040E858E30E94850D6093E803709384
:1014E000E9038093EA039093EB030E940D0360915C
:1014F000F6037091F703072E000C880B990B0E94DE
:10150000260D20E030E04AE753E40E94850D20E0FC
:1015100030E040E058E30E94850D6093D40370935F
:10152000D5038093D6039093D7036091F403709111
:10153000F503072E000C880B990B0E94260D20E066
:1015400030E04AE753E40E94850D20E030E040E0BF
:1015500058E30E94850D6093D8037093D90380935C
:10156000DA039093DB036091F2037091F303072E8B
:10157000000C880B990B0E94260D20E030E04AE712
:1015800053E40E94850D20E030E040E058E30E94E3
:10159000850D6093DC037093DD038093DE039093ED
:1015A000DF033982AE014F5F5F4F6AE08CE00E943B
:1015B000EF026AE070E080E090E00E94C70508EE6C
:1015C00013E02AEB33E046E063E08CE00E94790709
:1015D0006091BB0370E0762F66278091BA03682B79
:1015E0007093F1036093F003E090BD03F12CFE2CA7
:1015F000EE248091BC03E82AF092EF03E092EE0320
:101600000091BF0310E0102F00278091BE03082B2C
:101610001093ED030093EC03072E000C880B990B3D
:101620000E94260D20E030E046E954E40E94850D3A
:1016300020E030E040E859E30E94850D6B837C8315
:101640008D839E836093C8037093C9038093CA03FC
:101650009093CB03B701FF0C880B990B0E94260DCA
:1016600020E030E046E954E40E94850D20E030E0BF
:1016700040E859E30E94850D6F83788789879A87B0
:101680006093CC037093CD038093CE039093CF03EC
:10169000B801110F880B990B0E94260D20E030E055
:1016A00046E954E40E94850D20E030E040E859E32B
:1016B0000E94850D6B877C878D879E876093D00302
:1016C0007093D1038093D2039093D3032B813C81F9
:1016D0004D815E816F81788589859A850E94DE0EB5
:1016E00020E030E044E353E40E94850D2BED3FE021
:1016F00049E450E40E94420F6B017C0120E030E09D
:10170000A9010E941F0D87FD09C0C092C403D09299
:10171000C503E092C603F092C70310C020E030E09A
:1017200044EB53E4C701B6010E94440E6093C40326
:101730007093C5038093C6039093C703C501B4019A
:1017400090580E94B00E6B017C010E943D0F6F8784
:10175000788B898B9A8B9B01AC01C301B2010E94EB
:10176000420F0E94B00E4B015C01C701B6010E94FE
:101770008A106B8B7C8B8D8B9E8BC501B4010E9474
:101780008A102B013C01C501B4010E943D0F4B01A1
:101790005C01A30192016B817C818D819E810E94FD
:1017A000850D2B893C894D895E890E94850D6B01D1
:1017B0007C01A50194016F81788589859A850E94B5
:1017C000850D9B01AC01C701B6010E94440E6B015F
:1017D0007C01A30192016B857C858D859E850E948D
:1017E000850D2F85388949895A890E94850D9B016D
:1017F000AC01C701B6010E94430E6B017C012F852D
:10180000388949895A896B817C818D819E810E94AA
:10181000850D4B015C012B893C894D895E896B8567
:101820007C858D859E850E94850D9B01AC01C5013F
:10183000B4010E94440E9B01AC01C701B6010E9495
:10184000DE0E20E030E044E353E40E94850D2BEDF2
:101850003FE049E450E40E94420F4B015C0120E06C
:1018600030E0A901C701B6010E941F0D87FD09C024
:101870008092C0039092C103A092C203B092C303AE
:1018800010C020E030E044EB53E4C501B4010E94F5
:10189000440E6093C0037093C1038093C20390937E
:1018A000C30387EA91E00E94490160E070E0CB0148
:1018B0000E948D028FEB91E00E94980160E070E041
:1018C000CB010E948D028FEB91E00E94980160E0B5
:1018D00070E0CB010E947E0283EC91E00E944901FE
:1018E00089EC91E00E9449016091E0037091E1036D
:1018F0008091E2039091E3030E948D0283EE91E0D8
:101900000E9498016091E4037091E5038091E603E1
:101910009091E7030E948D0283EE91E00E9498016E
:101920006091E8037091E9038091EA039091EB03E1
:101930000E947E0285EE91E00E9449016091D403ED
:101940007091D5038091D6039091D7030E948D02A8
:1019500083EE91E00E9498016091D8037091D903C1
:101960008091DA039091DB030E948D0283EE91E077
:101970000E9498016091DC037091DD038091DE0389
:101980009091DF030E947E028FEF91E00E94490157
:101990006091C8037091C9038091CA039091CB03F1
:1019A0000E948D0283EE91E00E9498016091CC0329
:1019B0007091CD038091CE039091CF030E948D0250
:1019C00083EE91E00E9498016091D0037091D10361
:1019D0008091D2039091D3030E947E0287E192E02E
:1019E0000E9449016091C4037091C5038091C603B0
:1019F0009091C7030E948D0287EC91E00E944901FB
:101A000082E592E00E9449016091C0037091C10398
:101A10008091C2039091C3030E947E0285EC91E005
:101A20000E94490186E291E00E94370168EB7BE069
:101A300080E090E00E94C7050E947F0408CD0E94CC
:101A4000610D08F481E00895E89409C097FB3EF425
:101A500090958095709561957F4F8F4F9F4F9923FB
:101A6000A9F0F92F96E9BB279395F6958795779579
:101A70006795B795F111F8CFFAF4BB0F11F460FF39
:101A80001BC06F5F7F4F8F4F9F4F16C0882311F091
:101A900096E911C0772321F09EE8872F762F05C0A5
:101AA000662371F096E8862F70E060E02AF09A9540
:101AB000660F771F881FDAF7880F9695879597F935
:101AC0000895990F0008550FAA0BE0E8FEEF1616CF
:101AD0001706E807F907C0F012161306E407F50722
:101AE00098F0621B730B840B950B39F40A2661F096
:101AF000232B242B252B21F408950A2609F4A14039
:101B0000A6958FEF811D811D08950E94980D0C945C
:101B1000090E0E94FB0D38F00E94020E20F0952362
:101B200011F00C94F20D0C94F80D11240C943D0E50
:101B30000E941A0E70F3959FC1F3950F50E0551F48
:101B4000629FF001729FBB27F00DB11D639FAA2712
:101B5000F00DB11DAA1F649F6627B00DA11D661F61
:101B6000829F2227B00DA11D621F739FB00DA11D82
:101B7000621F839FA00D611D221F749F3327A00D3C
:101B8000611D231F849F600D211D822F762F6A2FD8
:101B900011249F5750409AF0F1F088234AF0EE0F3D
:101BA000FF1FBB1F661F771F881F91505040A9F76A
:101BB0009E3F510580F00C94F20D0C943D0E5F3F5A
:101BC000E4F3983ED4F3869577956795B795F795A6
:101BD000E7959F5FC1F7FE2B880F911D969587951E
:101BE00097F9089597F99F6780E870E060E008959D
:101BF0009FEF80EC089500240A9416161706180625
:101C00000906089500240A94121613061406050600
:101C10000895092E0394000C11F4882352F0BB0F91
:101C200040F4BF2B11F460FF04C06F5F7F4F8F4FF4
:101C30009F4F089557FD9058440F551F59F05F3F2F
:101C400071F04795880F97FB991F61F09F3F79F0DE
:101C500087950895121613061406551FF2CF469560
:101C6000F1DF08C0161617061806991FF1CF8695E2
:101C70007105610508940895E894BB2766277727C6
:101C8000CB0197F908955058BB27AA270E945B0EF5
:101C90000C94090E0E94FB0D38F00E94020E20F0F9
:101CA00039F49F3F19F426F40C94F80D0EF4E095E6
:101CB000E7FB0C94F20DE92F0E941A0E58F3BA17A5
:101CC000620773078407950720F079F4A6F50C9452
:101CD0003C0E0EF4E0950B2EBA2FA02D0B01B9018E
:101CE00090010C01CA01A0011124FF27591B99F092
:101CF000593F50F4503E68F11A16F040A22F232F9E
:101D0000342F4427585FF3CF469537952795A795ED
:101D1000F0405395C9F77EF41F16BA0B620B730B94
:101D2000840BBAF09150A1F0FF0FBB1F661F771F05
:101D3000881FC2F70EC0BA0F621F731F841F48F4BA
:101D4000879577956795B795F7959E3F08F0B0CF43
:101D50009395880F08F09927EE0F9795879508952A
:101D60009F939F77EEE389379E0728F4E8E6F0E03B
:101D70000E942A100CC00E94E30F9058A2EA2AED9C
:101D80003FE049EC5FE30E945B0E0E94090E0F905A
:101D900007FC905808950E94FB0D60F080E891E0E8
:101DA00009F49EEF0E94020E28F040E851E071F421
:101DB0005EEF0CC00C94F80D0C943C0EE92FE0780B
:101DC0000E941A0E40F3092E052AB1F32617370791
:101DD0004807590738F00E2E07F8E02569F0E0258E
:101DE000E0640AC0EF6307F8009407FADB01B90169
:101DF0009D01DC01CA01AD01EF930E94590F0E94C1
:101E0000090E0E940E0F5F91552339F02BED3FE034
:101E100049E450FD49EC0C94440E0895DF93DD270E
:101E2000B92FBF7740E85FE31616170648075B0730
:101E300018F4D92F0E9482109F938F937F936F93F2
:101E40000E94D810ECE7F0E00E9403100E94090EF7
:101E50002F913F914F915F910E94980DDD2351F09A
:101E60009058A2EA2AED3FE049EC5FE3D0785D2785
:101E70000E945B0EDF910C94090E0E944010E395C6
:101E80000C9469100E94560F0C94090E0E94020EC9
:101E900058F00E94FB0D40F029F45F3F29F00C94AC
:101EA000F20D51110C943D0E0C94F80D0E941A0E77
:101EB00068F39923B1F3552391F3951B550BBB2779
:101EC000AA2762177307840738F09F5F5F4F220FBE
:101ED000331F441FAA1FA9F335D00E2E3AF0E0E8B5
:101EE00032D091505040E695001CCAF72BD0FE2FFF
:101EF00029D0660F771F881FBB1F26173707480793
:101F0000AB07B0E809F0BB0B802DBF01FF2793584A
:101F10005F4F3AF09E3F510578F00C94F20D0C940F
:101F20003D0E5F3FE4F3983ED4F386957795679531
:101F3000B795F7959F5FC9F7880F911D969587957F
:101F400097F90895E1E0660F771F881FBB1F62179E
:101F500073078407BA0720F0621B730B840BBA0B5C
:101F6000EE1F88F7E09508950E94220E88F09F5793
:101F700098F0B92F9927B751B0F0E1F0660F771FAD
:101F8000881F991F1AF0BA95C9F714C0B13091F0A3
:101F90000E943C0EB1E008950C943C0E672F782F00
:101FA0008827B85F39F0B93FCCF386957795679568
:101FB000B395D9F73EF490958095709561957F4FD4
:101FC0008F4F9F4F0895DF93CF931F930F938B01F4
:101FD000EC01E9EAF0E00E9403100E94090E98016A
:101FE000AE018B01EC0160E070E080E89FE30E94AD
:101FF000430E0E9498109801AE010F911F91CF914E
:10200000DF910C94980DDF93CF931F930F93FF9262
:10201000EF92DF927B018C01689406C0DA2EEF010B
:102020000E94980DFE01E894A59125913591459166
:102030005591A6F3EF010E945B0EFE019701A801E6
:10204000DA9469F7DF90EF90FF900F911F91CF9195
:10205000DF9108959F938F937F936F93FF93EF93F7
:102060009B01AC010E94850DEF91FF910E9403102E
:102070002F913F914F915F910C94850D0C94F80D29
:102080000E94220ED8F3E894E0E0BB279F57F0F0BF
:102090002AED3FE049EC06C0EE0FBB0F661F771F2D
:1020A000881F28F0B23A62077307840728F0B25AF3
:1020B000620B730B840BE3959A9572F7803830F4BA
:1020C0009A95BB0F661F771F881FD2F790480C9414
:1020D000E310EF93E0FF07C0A2EA2AED3FE049ECEE
:1020E0005FEB0E945B0E0E94090E0F90039401FCAF
:1020F0009058E1EDF0E00C942A100E94610D08F474
:102100008FEF08959B01AC0160E070E080E89FE3F1
:102110000C94420F9F930E9440100F9007FCEE5FBB
:102120000C94691019F416F40C94F80D0C94E11049
:102130000E94220EB8F39923C9F3B6F39F57550BAB
:1021400087FF0E94EF100024A0E640EA900180582B
:102150005695979528F4805C660F771F881F20F0AE
:1021600026173707480730F4621B730B840B2029AE
:1021700031294A2BA69517940794202531254A2703
:1021800058F7660F771F881F20F026173707480774
:1021900030F4620B730B840B200D311D411DA09593
:1021A00081F7B901842F9158880F969587950895E6
:1021B0009B01AC010C94850D0E94610D880B990B5D
:1021C00008959F3F31F0915020F48795779567955A
:1021D000B795880F911D9695879597F90895915019
:1021E0005040660F771F881FD2F70895A1E21A2E7C
:1021F000AA1BBB1BFD010DC0AA1FBB1FEE1FFF1FAB
:10220000A217B307E407F50720F0A21BB30BE40BFA
:10221000F50B661F771F881F991F1A9469F7609541
:102220007095809590959B01AC01BD01CF010895FB
:10223000EE0FFF1F0590F491E02D099481E090E0EE
:0A224000F8940C942311F894FFCFDA
:10224A00E8030000000016040C01AE035D04DF037E
:10225A00BD03D103000000003C050C056C05E00439
:10226A000405F004E1040D0A006E616E00696E66F1
:10227A00006F7666004D50553932353020636F6EE7
:10228A006E656374696F6E207375636365737366D5
:10229A00756C004D50553932353020636F6E6E655E
:1022AA006374696F6E206661696C656400496E6962
:1022BA007469616C697A696E672049324320646582
:1022CA0076696365732E2E2E0054657374696E6782
:1022DA002064657669636520636F6E6E65637469F1
:1022EA006F6E732E2E2E0063616C6962726174695F
:1022FA006F6E20706172616D657465723A2000209C
:10230A00202020202020202000416363656C657214
:10231A006174696F6E286729206F6620582C592CC2
:10232A005A3A002C004779726F28646567726573A0
:10233A00732F7329206F6620582C592C5A3A004360
:10234A006F6D706173732056616C7565206F6620BE
:10235A00582C592C5A3A0054686520636C6F636B89
:10236A007769736520616E676C652062657477654D
:10237A00656E20746865206D61676E657469632097
:10238A006E6F72746820616E6420582D417869738B
:10239A003A0054686520636C6F636B7769736520D4
:1023AA00616E676C65206265747765656E20746816
:1023BA0065206D61676E65746963206E6F727468FB
:1023CA0020616E64207468652070726F6A65637438
:1023DA00696F6E206F662074686520706F73697408
:1023EA0069766520582D4178697320696E20746872
:1023FA006520686F72697A6F6E74616C20706C61A7
:04240A006E653A00C1
:107800000C94343C0C94513C0C94513C0C94513CE1
:107810000C94513C0C94513C0C94513C0C94513CB4
:107820000C94513C0C94513C0C94513C0C94513CA4
:107830000C94513C0C94513C0C94513C0C94513C94
:107840000C94513C0C94513C0C94513C0C94513C84
:107850000C94513C0C94513C0C94513C0C94513C74
:107860000C94513C0C94513C11241FBECFEFD8E036
:10787000DEBFCDBF11E0A0E0B1E0ECE9FFE702C060
:1078800005900D92A230B107D9F712E0A2E0B1E065
:1078900001C01D92AD30B107E1F70E942D3D0C945F
:1078A000CC3F0C94003C982F959595959595959582
:1078B000905D8F708A307CF0282F295A8091C0000B
:1078C00085FFFCCF9093C6008091C00085FFFCCF60
:1078D0002093C6000895282F205DF0CF982F809127
:1078E000C00085FFFCCF9093C6000895EF92FF92F1
:1078F0000F931F93EE24FF2487018091C00087FD22
:1079000017C00894E11CF11C011D111D81E4E8164B
:1079100082E4F8068FE0080780E0180770F3E09132
:107920000401F091050109958091C00087FFE9CF1E
:107930008091C6001F910F91FF90EF9008950E94D3
:10794000763C982F8091C00085FFFCCF9093C600B5
:1079500091362CF490330CF09053892F089597555D
:10796000892F08951F930E949F3C182F0E949F3CCF
:107970001295107F810F1F9108951F93182F882350
:1079800021F00E94763C1150E1F71F9108951F935A
:10799000182F0E94763C803249F0809103018F5F5E
:1079A000809303018530C1F01F9108958091C0003C
:1079B00085FFFCCF84E18093C6008091C00085FFE5
:1079C000FCCF1093C6008091C00085FFFCCF80E102
:1079D0008093C6001F910895E0910401F091050184
:1079E00009951F9108950E94763C803241F0809164
:1079F00003018F5F80930301853081F008958091AA
:107A0000C00085FFFCCF84E18093C6008091C00058
:107A100085FFFCCF80E18093C6000895E0910401CA
:107A2000F09105010995089540E951E08823A1F0FE
:107A30002D9A28EE33E0FA013197F1F721503040CA
:107A4000D1F72D9828EE33E0FA013197F1F7215064
:107A50003040D1F7815061F708953F924F925F9285
:107A60006F927F928F929F92AF92BF92CF92DF924E
:107A7000EF92FF920F931F93CF93DF93000080E16B
:107A80008093C4001092C50088E18093C10086E015
:107A90008093C2005098589A259A81E00E94143D24
:107AA00024E1F22E9EE1E92E85E9D82E0FE0C02ECA
:107AB00010E1B12EAA24A394B1E49B2EA6E58A2E50
:107AC000F2E57F2EE0E26E2E79E4572E63E5462E36
:107AD00050E5352E0E94763C8033B1F18133B9F107
:107AE000803409F46FC0813409F476C0823409F41B
:107AF00085C0853409F488C0803531F1823521F1A3
:107B0000813511F1853509F485C0863509F48DC0BC
:107B1000843609F496C0843709F403C1853709F423
:107B200072C1863709F466C0809103018F5F80932C
:107B30000301853079F6E0910401F0910501099582
:107B40000E94763C803351F60E94F33CC3CF0E94E2
:107B5000763C803249F78091C00085FFFCCFF092DF
:107B6000C6008091C00085FFFCCF9092C600809136
:107B7000C00085FFFCCF8092C6008091C00085FFC9
:107B8000FCCF7092C6008091C00085FFFCCF609250
:107B9000C6008091C00085FFFCCF5092C600809146
:107BA000C00085FFFCCF4092C6008091C00085FFD9
:107BB000FCCF3092C6008091C00085FFFCCFB09210
:107BC000C60088CF0E94763C863808F4BDCF0E945C
:107BD000763C0E94F33C7ECF0E94763C803809F4CC
:107BE0009CC0813809F40BC1823809F43CC1883942
:107BF00009F48FC080E00E94C73C6CCF84E10E94F2
:107C0000BD3C0E94F33C66CF85E00E94BD3C0E94D3
:107C1000F33C60CF0E94763C809306010E94763C44
:107C2000809307010E94F33C55CF0E94763C80333D
:107C300009F41DC183E00E94BD3C80E00E94C73C66
:107C400049CF0E94763C809309020E94763C809343
:107C5000080280910C028E7F80930C020E94763C79
:107C6000853409F415C18091080290910902892B8D
:107C700089F000E010E00E94763CF801E85FFE4FDA
:107C800080830F5F1F4F80910802909109020817AF
:107C9000190788F30E94763C803209F045CF809125
:107CA0000C0280FF01C16091060170910701660F0F
:107CB000771F7093070160930601A0910802B091AD
:107CC00009021097C9F0E8E0F1E09B01AD014E0F09
:107CD0005F1FF999FECF32BD21BD819180BDFA9A17
:107CE000F99A2F5F3F4FE417F50799F76A0F7B1F4B
:107CF00070930701609306018091C00085FFFCCF5F
:107D0000F092C6008091C00085FFFCCFB092C60003
:107D1000E1CE83E00E94C73CDDCE82E00E94C73CFA
:107D2000D9CE0E94763C809309020E94763C8093D3
:107D300008028091060190910701880F991F909386
:107D40000701809306010E94763C853409F4A6C0A1
:107D500080910C028E7F80930C020E94763C8032D0
:107D600009F0B8CE8091C00085FFFCCFF092C6002C
:107D7000609108027091090261157105B9F140E046
:107D800050E080910C02A82FA170B82FB27011C0E2
:107D9000BB2309F45CC0E0910601F0910701319624
:107DA000F0930701E09306014F5F5F4F46175707B7
:107DB000E8F4AA2369F3F999FECF209106013091E6
:107DC000070132BD21BDF89A90B58091C00085FFB2
:107DD000FCCF9093C6002F5F3F4F30930701209355
:107DE00006014F5F5F4F4617570718F38091C00099
:107DF00085FDE5CE8091C00085FFF8CFE0CE81E023
:107E00000E94C73C67CE0E94763C803209F08CCE3F
:107E10008091C00085FFFCCFF092C6008091C00029
:107E200085FFFCCFE092C6008091C00085FFFCCFAB
:107E3000D092C6008091C00085FFFCCFC092C600E2
:107E40008091C00085FFFCCFB092C60043CEE09188
:107E50000601F091070194918091C00085FFFCCF4D
:107E60009093C6009CCF80E10E94C73C33CE0E9415
:107E7000763C0E94763C182F0E94763C112309F430
:107E800083C0113009F484C08FE00E94C73C22CE29
:107E900080910C02816080930C02E5CE80910C02EF
:107EA000816080930C0259CF809107018823880F4D
:107EB000880B8A2180930B02809106019091070123
:107EC000880F991F90930701809306018091080203
:107ED00080FF09C080910802909109020196909359
:107EE000090280930802F894F999FECF1127E091D6
:107EF0000601F0910701C8E0D1E08091080290915D
:107F00000902103091F40091570001700130D9F34B
:107F100003E000935700E89500915700017001308D
:107F2000D9F301E100935700E89509901990009169
:107F3000570001700130D9F301E000935700E89534
:107F40001395103498F011270091570001700130FB
:107F5000D9F305E000935700E895009157000170B0
:107F60000130D9F301E100935700E895329602976A
:107F700009F0C7CF103011F00296E5CF112480919F
:107F8000C00085FFB9CEBCCE8EE10E94C73CA2CD19
:0C7F900085E90E94C73C9ECDF894FFCF0D
:027F9C00800063
:040000030000780081
:00000001FF
